{
    "_format": "hh-sol-artifact-1",
    "contractName": "CryptoMono",
    "sourceName": "contracts/CryptoMono.sol",
    "abi": [
        {
            "inputs": [
                {
                    "internalType": "uint256",
                    "name": "_target",
                    "type": "uint256"
                }
            ],
            "stateMutability": "nonpayable",
            "type": "constructor"
        },
        {
            "anonymous": false,
            "inputs": [
                {
                    "indexed": true,
                    "internalType": "address",
                    "name": "previousOwner",
                    "type": "address"
                },
                {
                    "indexed": true,
                    "internalType": "address",
                    "name": "newOwner",
                    "type": "address"
                }
            ],
            "name": "OwnershipTransferred",
            "type": "event"
        },
        {
            "inputs": [],
            "name": "addFund",
            "outputs": [],
            "stateMutability": "payable",
            "type": "function"
        },
        {
            "inputs": [],
            "name": "owner",
            "outputs": [
                {
                    "internalType": "address",
                    "name": "",
                    "type": "address"
                }
            ],
            "stateMutability": "view",
            "type": "function"
        },
        {
            "inputs": [],
            "name": "renounceOwnership",
            "outputs": [],
            "stateMutability": "nonpayable",
            "type": "function"
        },
        {
            "inputs": [],
            "name": "target",
            "outputs": [
                {
                    "internalType": "uint256",
                    "name": "",
                    "type": "uint256"
                }
            ],
            "stateMutability": "view",
            "type": "function"
        },
        {
            "inputs": [
                {
                    "internalType": "address",
                    "name": "newOwner",
                    "type": "address"
                }
            ],
            "name": "transferOwnership",
            "outputs": [],
            "stateMutability": "nonpayable",
            "type": "function"
        },
        {
            "inputs": [
                {
                    "internalType": "address",
                    "name": "_beneficiary",
                    "type": "address"
                }
            ],
            "name": "withdraw",
            "outputs": [],
            "stateMutability": "nonpayable",
            "type": "function"
        }
    ],
    "bytecode": "0x608060405234801561001057600080fd5b506040516108a53803806108a583398181016040528101906100329190610175565b61004e61004361006e60201b60201c565b61007660201b60201c565b670de0b6b3a76400008161006291906101d1565b6001819055505061022b565b600033905090565b60008060009054906101000a900473ffffffffffffffffffffffffffffffffffffffff169050816000806101000a81548173ffffffffffffffffffffffffffffffffffffffff021916908373ffffffffffffffffffffffffffffffffffffffff1602179055508173ffffffffffffffffffffffffffffffffffffffff168173ffffffffffffffffffffffffffffffffffffffff167f8be0079c531659141344cd1fd0a4f28419497f9722a3daafe3b4186f6b6457e060405160405180910390a35050565b600080fd5b6000819050919050565b6101528161013f565b811461015d57600080fd5b50565b60008151905061016f81610149565b92915050565b60006020828403121561018b5761018a61013a565b5b600061019984828501610160565b91505092915050565b7f4e487b7100000000000000000000000000000000000000000000000000000000600052601160045260246000fd5b60006101dc8261013f565b91506101e78361013f565b9250817fffffffffffffffffffffffffffffffffffffffffffffffffffffffffffffffff04831182151516156102205761021f6101a2565b5b828202905092915050565b61066b8061023a6000396000f3fe6080604052600436106100555760003560e01c806351cff8d91461005a578063715018a6146100835780638da5cb5b1461009a578063a2f09dfa146100c5578063d4b83992146100cf578063f2fde38b146100fa575b600080fd5b34801561006657600080fd5b50610081600480360381019061007c919061042f565b610123565b005b34801561008f57600080fd5b50610098610175565b005b3480156100a657600080fd5b506100af610189565b6040516100bc919061046b565b60405180910390f35b6100cd6101b2565b005b3480156100db57600080fd5b506100e46101f8565b6040516100f1919061049f565b60405180910390f35b34801561010657600080fd5b50610121600480360381019061011c919061042f565b6101fe565b005b61012b610282565b8073ffffffffffffffffffffffffffffffffffffffff166108fc479081150290604051600060405180830381858888f19350505050158015610171573d6000803e3d6000fd5b5050565b61017d610282565b6101876000610300565b565b60008060009054906101000a900473ffffffffffffffffffffffffffffffffffffffff16905090565b60015447106101f6576040517f08c379a00000000000000000000000000000000000000000000000000000000081526004016101ed90610517565b60405180910390fd5b565b60015481565b610206610282565b600073ffffffffffffffffffffffffffffffffffffffff168173ffffffffffffffffffffffffffffffffffffffff161415610276576040517f08c379a000000000000000000000000000000000000000000000000000000000815260040161026d906105a9565b60405180910390fd5b61027f81610300565b50565b61028a6103c4565b73ffffffffffffffffffffffffffffffffffffffff166102a8610189565b73ffffffffffffffffffffffffffffffffffffffff16146102fe576040517f08c379a00000000000000000000000000000000000000000000000000000000081526004016102f590610615565b60405180910390fd5b565b60008060009054906101000a900473ffffffffffffffffffffffffffffffffffffffff169050816000806101000a81548173ffffffffffffffffffffffffffffffffffffffff021916908373ffffffffffffffffffffffffffffffffffffffff1602179055508173ffffffffffffffffffffffffffffffffffffffff168173ffffffffffffffffffffffffffffffffffffffff167f8be0079c531659141344cd1fd0a4f28419497f9722a3daafe3b4186f6b6457e060405160405180910390a35050565b600033905090565b600080fd5b600073ffffffffffffffffffffffffffffffffffffffff82169050919050565b60006103fc826103d1565b9050919050565b61040c816103f1565b811461041757600080fd5b50565b60008135905061042981610403565b92915050565b600060208284031215610445576104446103cc565b5b60006104538482850161041a565b91505092915050565b610465816103f1565b82525050565b6000602082019050610480600083018461045c565b92915050565b6000819050919050565b61049981610486565b82525050565b60006020820190506104b46000830184610490565b92915050565b600082825260208201905092915050565b7f54617267657420616c7265616479206163686965766564210000000000000000600082015250565b60006105016018836104ba565b915061050c826104cb565b602082019050919050565b60006020820190508181036000830152610530816104f4565b9050919050565b7f4f776e61626c653a206e6577206f776e657220697320746865207a65726f206160008201527f6464726573730000000000000000000000000000000000000000000000000000602082015250565b60006105936026836104ba565b915061059e82610537565b604082019050919050565b600060208201905081810360008301526105c281610586565b9050919050565b7f4f776e61626c653a2063616c6c6572206973206e6f7420746865206f776e6572600082015250565b60006105ff6020836104ba565b915061060a826105c9565b602082019050919050565b6000602082019050818103600083015261062e816105f2565b905091905056fea264697066735822122025889c410a40004834d1fbd48991dd20385898005dd6e657200341f663deadd664736f6c63430008090033",
    "linkReferences": {},
    "deployedLinkReferences": {}
}